:020000040000FA
:10000000100700206D020000710200007302000062
:100010007502000077020000790200000000000075
:100020000000000000000000000000007B02000053
:100030007D020000000000007F020000EF150000BC
:10004000830200008302000083020000830200009C
:10005000830200008302000083020000830200008C
:10006000830200008302000083020000830200007C
:10007000830200008302000083020000830200006C
:10008000830200008302000083020000830200005C
:10009000830200008302000083020000830200004C
:1000A000830200008302000083020000830200003C
:1000B000830200008302000083020000830200002C
:1000C000830200008302000083020000830200001C
:1000D000830200008302000083020000830200000C
:1000E00083020000830200008302000083020000FC
:1000F00083020000830200008302000083020000EC
:1001000083020000830200008302000083020000DB
:1001100083020000830200008302000083020000CB
:1001200083020000830200008302000083020000BB
:1001300083020000830200008302000083020000AB
:1001400000000000000000000000000000000000AF
:10015000830200008302000083020000830200008B
:10016000000000000000000000000000000000008F
:10017000000000000000000000000000000000007F
:10018000000000000000000000000000000000006F
:10019000000000000000000000000000000000005F
:1001A000000000000000000000000000000000004F
:1001B000830200008302000083020000830200002B
:1001C000830200008302000083020000830200001B
:1001D000830200008302000083020000830200000B
:1001E00083020000830200008302000083020000FB
:1001F00083020000830200008302000083020000EB
:10020000830200008302000083020000000000005F
:1002100083020000830200008302000083020000CA
:1002200083020000830200008302000083020000BA
:1002300083020000830200008302000083020000AA
:10024000830200008302000083020000830200009A
:10025000830200008302000083020000830200008A
:1002600083020000830200008302000000F00AB84D
:10027000FEE7FEE7FEE7FEE7FEE7FEE7FEE7FEE756
:10028000FEE7FEE7DFF80CD001F0D8FC004800479D
:10029000011B00001007002098B900BFFE4AD26879
:1002A00002F01002102AF9D00022FC4B1A60FA4A20
:1002B000916000BFF84AD26802F01002102AF9D00B
:1002C0000AE000BFF44AD26812F0020FFAD04022CE
:1002D000F24B1A60F04A9160704708B5F048006828
:1002E00040F01000EF49C1F804010846D0F80801B9
:1002F00040F00100C1F80801EB4800680090EB48AD
:10030000006840F0C000E9490860E948006840F032
:100310002C00E74908600846006820F0C00008602B
:10032000E448006840F0EC00E2490860E2480068F8
:10033000E24900EA0100E2490844DF490860084652
:10034000006820F07F400860A1F10400006820F000
:10035000EC00A1F104010860CF48406820F00200E1
:10036000CD4948600846406820F004004860D54800
:10037000006820F00F00D3490860C748006920F0EA
:10038000FF0000F11800C4490861084600684FF6F4
:10039000C07120EA0100C04908600846006820F0EA
:1003A000300008600846006820F00F0000F10700E8
:1003B00008600846406840F0020048604FF00000C6
:1003C0004FF04021C1F80002009002E00098401C6C
:1003D000009000980A28F9D38020BB4908604FF0AC
:1003E00021014FF00000FFF757FF6FF04E01002092
:1003F000FFF752FF04210020FFF74EFF14210020D9
:10040000FFF74AFF20210020FFF746FF0C210020C4
:10041000FFF742FF08BD70B5054600210120FFF738
:100420003BFF00240AE0A5F1200000EB8000A74A72
:10043000104401570120FFF72FFF641C052CF2DB4D
:1004400000210120FFF728FF70BD10B5044603E02E
:100450002078FFF7E0FF641C20780028F8D110BD59
:1004600070B504460A2C08DA99A0FFF7EEFF04F1F4
:100470003001C8B2FFF7CFFFB6E0642C15DA96A0C2
:10048000FFF7E3FF0A2094FBF0F03030C5B22846B6
:10049000FFF7C1FF0A2094FBF0F100FB1140303060
:1004A000C5B22846FFF7B7FF9EE0B4F57A7F23DA9E
:1004B0008AA0FFF7CAFF642094FBF0F03030C5B289
:1004C0002846FFF7A8FF642094FBF0F100FB1140E1
:1004D00084B20A2094FBF0F03030C5B22846FFF712
:1004E0009AFF0A2094FBF0F100FB11403030C5B2B6
:1004F0002846FFF790FF77E042F21070844233DA2B
:100500002020FFF788FF4FF47A7094FBF0F0303032
:10051000C5B22846FFF77FFF4FF47A7094FBF0F1E5
:1005200000FB114084B2642094FBF0F03030C5B27F
:100530002846FFF770FF642094FBF0F100FB1140A8
:1005400084B20A2094FBF0F03030C5B22846FFF7A1
:1005500062FF0A2094FBF0F100FB11403030C5B27D
:100560002846FFF758FF3FE042F2107094FBF0F08E
:100570003030C5B22846FFF74EFF42F2107094FBB0
:10058000F0F100FB114084B24FF47A7094FBF0F06C
:100590003030C5B22846FFF73EFF4FF47A7094FB27
:1005A000F0F100FB114084B2642094FBF0F0303095
:1005B000C5B22846FFF72FFF642094FBF0F100FB43
:1005C000114084B20A2094FBF0F03030C5B22846C6
:1005D000FFF721FF0A2094FBF0F100FB11403030BF
:1005E000C5B22846FFF717FF70BD70B504460D462B
:1005F0000B2C01DC052D00DD70BDC4EBC40040F008
:10060000800041B20020FFF747FE45F0400041B2B4
:100610000020FFF741FE00BFEEE710B5002404E024
:1006200000210120FFF738FE641CB4F5FC7FF7DBE6
:1006300000210846FFF7D9FF10BD70B5054600211F
:100640000846FFF7D2FF002404E029570120FFF7F6
:1006500023FE641CB4F5FC7FF7DB70BD2DE9F04F81
:10066000064615461F46AA7C95F81690B9F1000F6C
:1006700037DD924602EBDA7B4FEA6B0BB2EB4B0BAA
:100680002FD106EB020BBBF1540F2ADCA9F1010BB1
:100690008B4526DC302923E00080004000410040EB
:1006A00004E10F4000E00F4008E10F40004400402B
:1006B000204400401C4500402C450040FF000FFF37
:1006C00000222000C88F0040004200407E1C000035
:1006D00020202020000000002020200020200000FA
:1006E00001DDBDE8F08F0E2F00DD0E278A464FEAB0
:1006F000E17B01EB5B7BCBF3CF084FF0540A0AFBA5
:10070000086A1FFA8AF08A464FEAE17B01EB5B7BBD
:100710004FEAEB0BA1EBCB0B0BF0FF044FF0010A00
:100720000AFA04FA0AF0FF04AB7A4FF0010C82E0F7
:1007300015F803A0B7EB1A1F0CDADFF8F8A41AF8C3
:1007400000A04AEA040A4FFA8AFADFF8E8B40BF884
:1007500000A00BE0DFF8DCA41AF800A02AEA040AE3
:100760004FFA8AFADFF8CCB40BF800A000F1010AC6
:100770001FFA8AF015F803A00AF00F0ABA450CDD3B
:10078000DFF8B0A41AF800A04AEA040A4FFA8AFA7D
:10079000DFF8A0B40BF800A00BE0DFF898A41AF87B
:1007A00000A02AEA040A4FFA8AFADFF888B40BF8A4
:1007B00000A000F1010A1FFA8AF05B1C02EBD27B59
:1007C0004FEA6B0B9CFBFBFE0BFB1ECBBBF1000F40
:1007D0002FD1012C01DD641004E08024A8F1010A6E
:1007E0001FFA8AF84FF0540A0AFB086A1FFA8AF0C7
:1007F000934602EBDB7E4FEA6E0A4FEAEA7E0AEB93
:100800009E7E4FEAAE0EBAEB8E0E09D0BEF1010FFE
:1008100008D0BEF1020F07D0BEF1030F08D105E0EA
:1008200000BF05E0DB1C03E09B1C01E05B1C00BF7C
:1008300000BF0CF1010C02FB09FA0AEBDA7BBCEBFE
:100840006B0F7FF775AF00BF4BE7002003E000217F
:10085000F84A1154401CB0F5FC7FF8DB704710B526
:10086000F448FFF7EAFE10BD08B5F348006F40F00A
:100870000040F14908670846006F00900846006F85
:1008800000900846006F40F4006008670846006E5C
:1008900020F4F86008660846006E00F5A860086657
:1008A0000846006F20F0700008670846006F086770
:1008B0000846006F20F4005008670846006F40F0BB
:1008C000804008670846006F20F0FE5000F18070FD
:1008D000086700BFD848006D10F0400FFAD0D64826
:1008E000006F20F40060D449086708BD08B5D349FB
:1008F000096841F00401D14A11601146096800916C
:100900000021CF4AD160116002215160411E9162E5
:1009100000219163012151629161CA49096821F066
:100920007F4141F00051C74A11604FF40001C64AAF
:1009300011604FF00101C24AD16008BD08B5C3483B
:10094000006840F01000BC49C1F80801BF480068C9
:100950000090BE4800680090BD48006820F0030089
:10096000BB490860BB48006820F00300B949086033
:10097000B948006840F00300B7490860B74800680C
:1009800020F0FF00B5490860A1F10400006820F0E4
:100990000300A1F104010860B148006840F00300C1
:1009A000AF490860AF48006820F00300AD49086017
:1009B00001F10400006820F0030001F10401086067
:1009C00001F10400006820F0030001F10401086057
:1009D000A548006840F00300A3490860A3480068E8
:1009E00020F00300A1490860A148006820F0FF0042
:1009F00040F0A0009E4908604FF0E020D0F80001D0
:100A000040F010004FF0E021C1F8000108BD0021C6
:100A10004FF0E0221161411E516100219161954921
:100A2000096821F07F4141F08041924A116007211D
:100A30004FF0E0221161704708B58448006840F02B
:100A400010007D49C1F808018048006800907F4887
:100A5000006800907E48006820F004007C4908602F
:100A60007C48006840F004007A4908607A480068D1
:100A700020F00400784908607F48006840F00400D6
:100A80007D4908606C48D0F8000140F480306A4924
:100A9000C1F800016D48006800900846D0F80001D8
:100AA00020F440707549086040F2231074490862D0
:100AB0000846006820F0080008600846406920F4F5
:100AC000704048616F48006820F00F0000F101009D
:100AD0006C4908604FF006006949C1F8A400084657
:100AE000006840F00800086008BD08B5574909686B
:100AF00041F00201504AC2F80811544909680091B6
:100B00006149096821F021015F4A116002F1040185
:100B100009685E4A01EA02015D4A11605D4909689F
:100B200041F021015B4A11605B49096821F0210114
:100B3000594A11605949096841F02101574A116029
:100B40004FF00001564A1170564A1170564A117002
:100B5000564A11704FF00801554A11704FF00001CC
:100B6000544A11704FF0DC01534A11804FF00001DC
:100B7000524A1180524A11804FF02301514A11808C
:100B80004FF02F0151804FF0020191804E4991604A
:100B90004FF0000049E04D49897C491C4143C91C84
:100BA00000EB40024A4B23F822104849897D00EBB4
:100BB000400203EB82025180012100EB400203EB73
:100BC00082029180414900EB400203EB8202916076
:100BD000012100EB400203EB8202D1803D49897C78
:100BE000491C4143C91C00EB40023B4B23F8221037
:100BF0003649897D374A927D114400EB400203EB70
:100C000082025180012100EB400203EB82029180BD
:100C1000304900EB400203EB82029160012100EBBE
:100C2000400203EB8202D180401C0428B3DB002089
:100C300068E000001000002000E00F4004E60F40D4
:100C40000020034014E400E000E100E008E10F4070
:100C500000440240204402401C4502402C45024012
:100C600010450240044402401C440240104402402B
:100C700004E400E020ED00E02845024000E10F40E0
:100C800000800340A080034028550040F0FF00FF93
:100C90002C55004000540040205400401C5500409A
:100CA000090000200B0000200A00002006000020A0
:100CB00008000020070000200000002002000020A3
:100CC0000400002008020020082300005E1E00002F
:100CD00014020020EC1F000044020020002100EB61
:100CE0004002F94B03EB82029180022100EB4002AB
:100CF00003EB8202D180F54900EB400203EB820254
:100D00009160401C0528E9DB002013E0002100EB86
:100D10004002EF4B03EB82029180891E00EB400200
:100D200003EB8202D180E94900EB400203EB82022F
:100D30009160401C0528E9DB00201EE000EB40012B
:100D4000C900491D00EB4002E24B23F82210E249A2
:100D5000897DC1F12F0100EB400203EB820251803B
:100D6000022100EB400203EB82029180DB4900EBA1
:100D7000400203EB82029160401C0328DEDB08BDC9
:100D80000821D74A916200BFD549496811F0080F80
:100D9000FAD0D4490968C1F30B004FF00801D04ADA
:100DA000D160704730B5D04B1B78042B27DD002372
:100DB000CD4C2370CD4C237000201EE000EB40038F
:100DC000CB4C04EB83039B88012B06D1C94B00EB72
:100DD0004004C74D05EB8404A36000EB4003C64C00
:100DE00004EB83039B88012B06D1C44B00EB40042A
:100DF000C14D05EB8404A360401C0428DEDBBA4B24
:100E00001B78022B53D10023B84C237000204CE0F8
:100E100000EB4003B64C04EB8303B3F904305B1CD6
:100E20000DD100EB4004B24D05EB8404A380B44B1C
:100E30001B6823F03003B34CC4F8FC330EE000EB26
:100E40004003AB4C04EB83039B88012B06D1AE4BD4
:100E500000EB4004A64D05EB8404A36000EB4003C7
:100E6000A54C04EB8303B3F904305B1C0DD100EBFC
:100E70004004A14D05EB8404A380A14B1B6823F023
:100E80003003A04CC4F8FC330EE000EB40039A4C56
:100E900004EB83039B88012B06D19C4B00EB4004A1
:100EA000954D05EB8404A360401C0428B0DB4FF093
:100EB000FF315422002020E000EB40038C4C04EB77
:100EC00083039B88012B00D016E000EB4003884C85
:100ED00034F823308B4203DD00EB400334F8231059
:100EE00000EB4003824C34F82330934203DA00EBEA
:100EF000400334F8232000BF401C0428DCDB824B75
:100F00009B7CC3F152038B4201DB022A12DA0020E0
:100F10000EE000EB4003764C04EB8303DB885B427E
:100F20001BB200EB4004724D05EB8404E380401CCF
:100F30000428EEDB002920DB542A1EDA00201AE008
:100F400000EB40036A4C04EB83039B88012B00D029
:100F500010E000EB4003664C34F8233000EB400413
:100F6000634D05EB8404E488234400EB400425F83A
:100F7000243000BF401C0428E2DB4FF0FF31542234
:100F8000002020E000EB40035B4C04EB83039B88D4
:100F9000012B00D016E000EB4003574C34F823300F
:100FA0008B4203DD00EB400334F8231000EB4003D9
:100FB000514C34F82330934203DA00EB400334F809
:100FC000232000BF401C0428DCDB504B9B7CC3F17A
:100FD00052038B4201DB022A12DA00200EE000EB02
:100FE0004003454C04EB8303DB885B421BB200EB00
:100FF0004004414D05EB8404E380401C0428EEDBF3
:10100000002920DB542A1EDA00201AE000EB4003FE
:10101000394C04EB83039B88012B00D010E000EBDC
:101020004003354C34F8233000EB4004324D05EBDF
:101030008404E488234400EB400425F8243000BFF6
:10104000401C0428E2DB30BD31490988002934DD29
:10105000002030E000EB40011B4A02EB810189884F
:1010600001B927E000EB4001174A02EB81014988F2
:101070002D290CDD002100EB4002134B03EB820213
:10108000918023490988491E214A118012E000EB12
:1010900040010D4A02EB8101498800EB40020A4BF6
:1010A00003EB8202D288114400EB400203EB820280
:1010B000518000BF401C0528CCDB16490988002957
:1010C00060DD00205CE0000098020020832C00001E
:1010D000D40200207402002008230000AA2400008B
:1010E00000800340A8800340090000200B0000207E
:1010F00014020020251F000044020020B32000003D
:10110000FC530040005000405E1E0000EC1F000039
:10111000020000200400002000EB4001FE4A02EB28
:101120008101898801B92AE000EB4001FA4A02EB0B
:1011300081014988F94A927D891A02290CDA002135
:1011400000EB4002F44B03EB82029180F4490988E2
:10115000491EF34A118012E000EB4001EE4A02EB17
:101160008101498800EB4002EB4B03EB8202D288FD
:10117000114400EB400203EB8202518000BF401C8F
:101180000528C9DB704710B5E64A128802B910BDC0
:101190000020E7E000EB4002E34B03EB8202928881
:1011A00002B9DDE0E14A927DC2F13002E04B9B7D65
:1011B000D21A00EB4003DC4C04EB83035B889A42B9
:1011C00000DDCDE000EB4002D74B03EB82025388F9
:1011D000D64A927DC2F12E02934271DA00216CE070
:1011E00001EB4102D34B03EB8202928802B963E028
:1011F00000EB4002CC4B33F8223001EB4102CD4CE6
:1012000034F82220521C934255DD00EB4002C64BBD
:1012100033F82220C14B9B7C134401EB410234F88C
:101220002220C34CA47C2244521E934243DAC24A79
:10123000126842F02002C14BC3F8FC234FF00002B9
:10124000BF4B1A7001EB4102BA4B03EB820292884A
:10125000A2F1010212B201EB4103B64C04EB83038D
:101260009A8001EB4102234603EB82029288012A15
:1012700006D1B44A01EB410304EB83039A600DE00D
:1012800001EB4102AB4B03EB8202928832B9AE4ACA
:1012900001EB4103A74C04EB83039A60002200EBAF
:1012A0004003A14C04EB83039A809E4A1288521E8D
:1012B0009C4B1A8003E000BF491C032990DB00BF50
:1012C00000EB4002984B03EB8202928802B947E0A0
:1012D00000EB4002944B03EB82025388934A927DC9
:1012E000C2F12F02934200DA3AE000EB40028E4B4B
:1012F00033F82230954A1288521C93422FDD00EBBE
:101300004002894B33F82220844B9B7C13448F4A44
:101310001288864CA47C2244521E93421FDA864ACD
:10132000126842F02002854BC3F8FC234FF0000204
:10133000834B1A70854A9288A2F1010212B2834B44
:101340009A804FF0000200EB4003774C04EB8303DC
:101350009A80744A1288A2F10102724B1A8000BF6F
:1013600000F101000528FFF615AF00BF0FE710B52B
:101370006B4A128802B910BD002033E100EB400235
:10138000654B03EB8202928802B92AE100EB40022E
:10139000614B03EB82025288604B9B7DD31A6C4AEF
:1013A000927D6C4CA47D2244921E934200DD18E194
:1013B00000EB4002584B03EB82025288574B9B7D57
:1013C000D31A644A927D921E934262DD00215DE051
:1013D00001EB4102604B03EB82029288012A00D0AC
:1013E00053E000EB40024C4B33F8223001EB41025A
:1013F000594C34F82220521C934245DD00EB400248
:10140000454B33F82220454B9B7C134401EB4102B2
:1014100034F822204E4CA47C2244521E934233DAEC
:10142000454A126842F01002444BC3F8FC234FF0C7
:101430000002434B1A70494A1278A2F10102474B4D
:101440001A704FF0FF3201EB4103434C04EB83036E
:101450009A80434A01EB410304EB83039A60414ABB
:101460001288A2F114023F4B1A804FF0000200EBE9
:101470004003294C04EB83039A80294A1288A2F185
:101480000102274B1A8003E000BF491C04299FDB9F
:1014900000BF00EB4002204B03EB8202928802B9AE
:1014A0009FE000EB40021C4B03EB820252881B4B77
:1014B0009B7DD31A274A927D921E934200DD90E0D5
:1014C000002189E001EB4102274B03EB8202928865
:1014D000012A00D07FE000EB40020F4B33F82230AE
:1014E00001EB4102204C34F82220521C934271DD62
:1014F00000EB4002084B33F82220084B9B7C13443E
:1015000001EB410234F82220124CA47C2244521EEA
:1015100093425FDA084A29E0D4020020832C0000BD
:101520000400002002000020980200200823000090
:10153000AA24000074020020FC5300400050004028
:101540000900002010260000C32600000802002029
:10155000EC1F00005E1E0000440200200800002076
:10156000242900000000002014020020126842F02C
:101570001002FE4BC3F8FC234FF00002FC4B1A7024
:10158000FC4A1278A2F10102FA4B1A704FF0FF32B6
:1015900001EB4103F84C04EB83039A80F74A01EB1B
:1015A000410304EB83039A60F54A1288A2F1140206
:1015B000F34B1A804FF0000200EB4003F14C04EBB8
:1015C00083039A80F04A1288A2F10102EE4B1A803E
:1015D00005E0FFE700BF491C0429FFF673AF00BF19
:1015E00000BF401C0528FFF6C9AE00BFC3E6F0B53A
:1015F000DF480078401CDE490870E448B0F9040078
:10160000012806DBDB480078012802DBE04800788F
:1016100000B9F0BDDF48006800F00304DD48083081
:10162000006840F00300DB4908310860D8480078C2
:1016300020B91CB10120D6490870EAE7FFF7A0FBEA
:101640002C21B0FBF1F5A5F11B00D0490880012C3D
:1016500003D0022C01D0032C76D100232DE0CE4AFA
:10166000917C01EBD172C94E368806EB620603EB22
:101670004302CA4F37F82220921C96421CDDC64A0C
:10168000907C00EBD072C14E368806EB620603EB0D
:10169000430237F82220C24FBF7C3A44921E964242
:1016A0000ADA03EB4302BD4E06EB820292881AB1BE
:1016B0000120BC49087002E05B1C032BCFDB00BF9C
:1016C000B148008805283FDAB6480078B0BB012051
:1016D000B4490870002334E003EB4300A94901EB4F
:1016E0008000808858BBA8480088401CA649088014
:1016F000012003EB4301A34A02EB81018880A64944
:10170000887C00EBD071A14A128802EB610103EBE7
:1017100043029C4E26F822109C4840889E49897DB1
:10172000401A03EB4301324602EB810148809E4898
:1017300003EB430102EB8101886004E004E0FFE772
:101740005B1C052BC8DB00BF01209849087000BF57
:101750005FE770B596480088042800DD70BD00255D
:10176000A7E005EB4500844901EB80008088012853
:1017700048D100F054FA060E8148008896FBF0F13B
:1017800000FB1160C6B2BEBB002438E004EB44008D
:10179000884901EB8000808878BB85480088401C20
:1017A00083490880012004EB4401824A02EB810155
:1017B00088808149887C00EBD07105EB45026E4B37
:1017C00033F8222002EB610104EB4402794B23F849
:1017D000221005EB4500684901EB8000408804EBCE
:1017E00044011A4602EB810148806F4804EB440132
:1017F00002EB8101886004E004E0FFE7641C052C33
:10180000C4DB00BF6A480088042800DDA6E705EBBA
:1018100045006A4901EB80008088012848D100F02A
:10182000FEF9060E5648008896FBF0F100FB1160A9
:10183000C6B2BEBB002438E004EB44005D4901EBB6
:101840008000808878BB5A480088401C584908802E
:10185000012004EB4401574A02EB8101888058497A
:10186000887C00EBD07105EB4502544B33F8222005
:1018700002EB610104EB44024E4B23F8221005EB0E
:1018800045004E4901EB8000408804EB44011A46B4
:1018900002EB81014880444804EB440102EB8101E2
:1018A000886004E004E0FFE7641C052CC4DB00BF93
:1018B0006D1C042DFFF655AF00BF4FE710B5022198
:1018C0000120FEF792FE3FA0FEF7BFFD032101209D
:1018D000FEF78BFE3DA0FEF7B8FD10BD10B5044627
:1018E000FEF7B3FFFEF7BBFF01210320FEF77DFEED
:1018F000012C07DA38A0FEF7A8FD03210020FEF72F
:1019000074FE0DE037A0FEF7A0FD02210846FEF7A9
:101910006CFE37A0FEF799FD04210020FEF765FE5E
:1019200036A0FEF792FD10BD30B5002483E004EB35
:101930004400114901EB8000808888B104EB440326
:101940000D4605EB83039A6804EB440305EB830320
:10195000997804EB440315F823000023FEF77EFE7C
:1019600004EB4400154901EB80004FE000500040BB
:101970000900002008000020140200202429000093
:1019800000000020D40200200400002008020020F3
:1019900007000020144402400823000074020020C5
:1019A000AA2400000B000020832C00000600002069
:1019B00002000020980200205E1E00004402002069
:1019C000EC1F000053504143450000002020494EC9
:1019D0005641444552530000594F55204C4F5354E3
:1019E00000000000594F5520574F4E2000000000C6
:1019F00020544849532054494D450000202045417A
:101A00005254484C494E472100000000808888B15C
:101A100004EB44030D4605EB83039A6804EB44038F
:101A200005EB8303997804EB440315F823000023A6
:101A3000FEF714FE641C042CFFF679AF002419E0B5
:101A400004EB4400624901EB8000808888B104EB1C
:101A500044030D4605EB83039A6804EB440305EB4E
:101A60008303997804EB440315F823000023FEF761
:101A7000F5FD641C032CE3DB564B9A6899781878C3
:101A80000023FEF7EBFD002419E004EB440052496B
:101A900001EB8000808888B104EB44030D4605EB20
:101AA00083039A6804EB440305EB8303997804EB02
:101AB000440315F823000023FEF7D0FD641C052C19
:101AC000E3DB002419E004EB4400444901EB80000F
:101AD000808888B104EB44030D4605EB83039A68C4
:101AE00004EB440305EB8303997804EB440315F8F6
:101AF00023000023FEF7B2FD641C052CE3DB30BDA0
:101B000000F07AF8FEF7B0FEFEF7E7FB3448FEF788
:101B10007EFFFEF791FFFEF711FFFEF7E6FF00F0F4
:101B20006DF8FEF792FEFEF79AFEFFF7C7FE4FF044
:101B3000E021886900F06EF800202A49087000BF93
:101B4000284800780F28FBDB0120274908703BE07C
:101B50002648007800B937E0FFF715FBFFF707FCD0
:101B6000FFF7F7FDFFF71EF9FFF76EFAFEF76DFEC0
:101B7000FFF7DAFEFEF773FE00201C4908701548D7
:101B8000B0F90400012803DB1948007801281ADAAB
:101B90001048B0F90400012806DA0E4A917810784E
:101BA0000023144AFEF75AFDFEF759FE00200D49A6
:101BB000087000BF0B4800780A28FBDB054908794C
:101BC000FFF78CFE01E000BFC2E700BF00BFFEE7E9
:101BD000740200200802002098020020D402002095
:101BE000A8C2A20009000020070000200600002073
:101BF000080000207627000072B6704762B6704772
:101C0000EFF3108072B6704780F31088704730BFD2
:101C100070470000064A4FF0010010607047044A08
:101C20001068044900FB01F0034908441060704744
:101C30000C0000200D6619005FF36E3C064C074D4A
:101C400006E0E06840F0010394E80700984710348C
:101C5000AC42F6D3FEF71AFBBC2D0000DC2D0000D1
:101C600002E008C8121F08C1002AFAD17047704765
:101C7000002001E001C1121F002AFBD170470000C3
:101C800000000000005F00000007000700147F1440
:101C90007F14242A7F2A12231308646236495522AE
:101CA000500005030000001C2241000041221C00DE
:101CB00014083E081408083E0808005030000008C8
:101CC00008080808006060000020100804023E5167
:101CD00049453E00427F400042615149462141450D
:101CE0004B311814127F1027454545393C4A494964
:101CF0003001710905033649494936064949291E0B
:101D00000036360000005636000008142241001448
:101D10001414141400412214080201510906324916
:101D200079413E7E1111117E7F494949363E41413C
:101D300041227F4141221C7F494949417F090909CC
:101D4000013E4149497A7F0808087F00417F4100F0
:101D50002040413F017F081422417F404040407FA6
:101D6000020C027F7F0408107F3E4141413E7F0903
:101D70000909063E4151215E7F0919294646494914
:101D8000493101017F01013F4040403F1F20402079
:101D90001F3F4038403F631408146307087008076A
:101DA0006151494543007F41410002040810200071
:101DB00041417F00040201020440404040400001D4
:101DC00002040020545454787F4844443838444432
:101DD0004420384444487F3854545418087E09013C
:101DE000020C5252523E7F0804047800447D4000A9
:101DF0002040443D007F1028440000417F40007C8B
:101E0000041804787C0804047838444444387C146A
:101E1000141408081414187C7C080404084854544A
:101E20005420043F4440203C4040207C1C20402063
:101E30001C3C4030403C44281028440C5050503C3E
:101E40004464544C44000836410000007F00000008
:101E50004136080010080810081F247C241F424D3A
:101E6000C60000000000000076000000280000000E
:101E7000100000000A000000010004000000000043
:101E80005000000000000000000000000000000002
:101E90000000000000000000000080000080000042
:101EA00000808000800000008000800080800000B2
:101EB00080808000C0C0C0000000FF0000FF000064
:101EC00000FFFF00FF000000FF00FF00FFFF000019
:101ED000FFFFFF00000000000000000000000F00F6
:101EE00000F000000000F000000F000000000F0FE5
:101EF000F0F000000000FFFFFFFF00000000FF0FF8
:101F0000F0FF000000000FFFFFF00000000000FFE6
:101F1000FF0000000000000FF000000000000000C3
:101F200000000000FF424DC60000000000000076E7
:101F300000000028000000100000000A000000015E
:101F4000000400000000005000000000000000003D
:101F50000000000000000000000000000000000081
:101F60000080000080000000808000800000008071
:101F70000080008080000080808000C0C0C0000021
:101F800000FF0000FF000000FFFF00FF000000FF57
:101F900000FF00FFFF0000FFFFFF00000000000047
:101FA000000000000F0F0000F0F0000000F0FFFF45
:101FB0000F000000000F0000F000000000FFFFFF16
:101FC000FF00000000FF0FF0FF000000000FFFFF08
:101FD000F00000000000FFFF0000000000000FF014
:101FE0000000000000000000000000FF424DC6009D
:101FF0000000000000007600000028000000100033
:1020000000000A0000000100040000000000500071
:1020100000000000000000000000000000000000C0
:102020000000000000000000800000800000008030
:1020300080008000000080008000808000008080A0
:102040008000C0C0C0000000FF0000FF000000FFD3
:10205000FF00FF000000FF00FF00FFFF0000FFFF88
:10206000FF0000000000000000000000FF0000FF73
:102070000000000FF00FF00FF0000000FFF00FFF66
:10208000000000FFFFFFFFFFFF0000FFF00FF00F59
:10209000FF0000FFFFFFFFFFFF00000FFFFFFFFF3C
:1020A000F000000000FFFF00000000000000000042
:1020B0000000FF424DC60000000000000076000056
:1020C0000028000000100000000A000000010004C9
:1020D00000000000005000000000000000000000B0
:1020E0000000000000000000000000000000008070
:1020F00000008000000080800080000000800080E0
:10210000008080000080808000C0C0C0000000FF10
:102110000000FF000000FFFF00FF000000FF00FFC5
:1021200000FFFF0000FFFFFF0000000000000000B4
:10213000000FF0000000000FF0000FF00FF00FF0A4
:10214000000000FFF00FFF000000FFFFFFFFFFFF98
:102150000000FFF00FF00FFF0000FFFFFFFFFFFF89
:1021600000000FFFFFFFFFF000000000FFFF000076
:10217000000000000000000000FF424DC60000000B
:1021800000000000760000002800000010000000A1
:102190000A000000010004000000000050000000E0
:1021A000000000000000000000000000000000002F
:1021B000000000000000800000800000008080001F
:1021C000800000008000800080800000808080000F
:1021D000C0C0C0000000FF0000FF000000FFFF00C3
:1021E000FF000000FF00FF00FFFF0000FFFFFF00F7
:1021F000000000000000000000000FF00FF00000E1
:1022000000F0F000000F0F0000FFFFFFFFFFFF00D6
:1022100000FFFFFFFFFFFF00000FF0FFFF0FF000C8
:102220000000FFFFFFFF000000000F0000F00000B3
:102230000000F000000F000000000000000000009F
:10224000FF424DC60000000000000076000000289C
:10225000000000100000000A00000001000400005F
:10226000000000500000000000000000000000001E
:1022700000000000000000000000000000800000DE
:1022800080000000808000800000008000800080CE
:1022900080000080808000C0C0C0000000FF0000FF
:1022A000FF000000FFFF00FF000000FF00FF00FF35
:1022B000FF0000FFFFFF0000000000000000000022
:1022C0000F00000000F0000000F000000F00000010
:1022D0000FFFFFFFFFF00000FFFFFFFFFFFF000009
:1022E000FFF0FFFF0FFF0000F0FFFFFFFF0F0000F8
:1022F000F00F0000F00F000000F000000F000000E1
:1023000000000000000000FF424DD6000000000069
:102310000000760000002800000012000000080005
:102320000000010004000000000060000000C40E76
:102330000000C40E000000000000000000000000CB
:10234000000000008000008000000080800080000D
:102350000000800080008080000080808000C0C07D
:10236000C0000000FF0000FF000000FFFF00FF00B2
:102370000000FF00FF00FFFF0000FFFFFF0000AABA
:10238000AAAAAAAAAAAA0000000000AAAAAAAAAAFF
:10239000AAAA0000000000AAAAAAAAAAAAAA000043
:1023A0000000000AAAAAAAAAAAA000000000000031
:1023B000000AAAA00000000000000000000AAAA075
:1023C00000000000000000000000AA000000000063
:1023D0000000000000000000000000000000FF42BC
:1023E0004DCA000000000000007600000028000038
:1023F00000140000000700000001000400000000BD
:102400000054000000000000000000000000000078
:1024100000000000000000000000008000008000BC
:10242000000080800080000000800080008080002C
:102430000080808000C0C0C0000000FF0000FF00DE
:102440000000FFFF00FF000000FF00FF00FFFF0093
:1024500000FFFFFF0000000F00000000F000000080
:10246000000000FFF00FF00FFF0000000000FFFF72
:10247000FFFFFFFFFFFF000000000FF0FF0FF0FF66
:102480000FF00000000000FFFFFFFFFFFF00000053
:102490000000000FFFFFFFFFF00000000000000041
:1024A0000FFFFFF00000000000FF424DB2000000EF
:1024B000000000007600000028000000120000006C
:1024C0000500000001000400000000003C000000C6
:1024D000C40E0000C40E0000000000000000000058
:1024E00000000000000080000080000000808000EC
:1024F00080000000800080008080000080808000DC
:10250000C0C0C0000000FF0000FF000000FFFF008F
:10251000FF000000FF00FF00FFFF0000FFFFFF00C3
:10252000AAAA0000000000AAAA000000AAAAA0000F
:1025300000000AAAAA000000AAAAAAAAAAAAAAAAED
:10254000AA0000000AAAAAAAAAAAAAAAA000000091
:1025500000AAAAAAAAAAAAAA00000000FF424DB295
:1025600000000000000000760000002800000012BB
:102570000000000500000001000400000000003C15
:10258000000000C40E0000C40E00000000000000A7
:10259000000000000000000000800000800000003B
:1025A000808000800000008000800080800000802B
:1025B000808000C0C0C0000000FF0000FF000000DD
:1025C000FFFF00FF000000FF00FF00FFFF0000FF13
:1025D000FFFF00AAAA0000000000AAAA000000AAAB
:1025E000AAA00000000AAA0A0000000A0AAAAAAAD1
:1025F000AAA0AAAA0000000AAA0AA0A0AAAAA0A0AB
:102600000000000000A0A0000A0A0A00000000FF6D
:10261000424DB200000000000000760000002800DB
:10262000000012000000050000000100040000008E
:1026300000003C000000C40E0000C40E00000000BA
:10264000000000000000000000000000800000808A
:1026500000000080800080000000800080008080FA
:10266000000080808000C0C0C0000000FF0000FFAC
:10267000000000FFFF00FF000000FF00FF00FFFF61
:102680000000FFFFFF000A0A0000000000A0AA00EF
:102690000000AA0AA00000000AAA0A0000000A0A14
:1026A0000AA0AAA0A0A0A000000000AA0A00A0A062
:1026B000A000A00000000000A000000A0000000030
:1026C0000000FF424DB20000000000000076000054
:1026D00000280000001200000005000000010004B6
:1026E00000000000003C000000C40E0000C40E000A
:1026F000000000000000000000000000000000805A
:1027000000008000000080800080000000800080C9
:10271000008080000080808000C0C0C0000000FFFA
:102720000000FF000000FFFF00FF000000FF00FFAF
:1027300000FFFF0000FFFFFF00000000000000009E
:102740000000000000000000000000000000000089
:102750000000000000000000000000000000000079
:102760000000000000000000000000000000000069
:102770000000000000FF424DD600000000000000F5
:102780007600000028000000120000000800000091
:1027900001000400000000006000000000000000D4
:1027A0000000000000000000000000000000000029
:1027B0000000800000800000008080008000000099
:1027C000800080008080000080808000C0C0C00049
:1027D0000000FF0000FF000000FFFF00FF000000FE
:1027E000FF00FF00FFFF0000FFFFFF000A000900DD
:1027F000000090000000000000900090B00A000B64
:1028000000000000000B000B0000000000000000B2
:102810000BA000E0000090909A0000000000A000D3
:1028200000E000000000000000900000A00000AEEA
:10283000000000000A0000E00A0A0000B0000000EA
:10284000A0000900000090000A000000FF424DD6E1
:1028500000000000000000760000002800000012C8
:1028600000000008000000010004000000000060FB
:102870000000000000000000000000000000000058
:102880000000000000000000008000008000000048
:102890008080008000000080008000808000008038
:1028A000808000C0C0C0000000FF0000FF000000EA
:1028B000FFFF00FF000000FF00FF00FFFF0000FF20
:1028C000FFFF000E0009000900B000A0000000009A
:1028D000000090000000000900000000000000005F
:1028E00000000000000000A9000000009000000BA4
:1028F0000000000000000E000000A000000000002A
:102900000B000000000000000000000000000000BC
:1029100000000090000000E0000A009000B00009F4
:10292000000000FF424DC6000000000000007600DD
:10293000000028000000100000000A000000010054
:102940000400000000005000000000000000000033
:102950000000000000000000000000000000000077
:102960008000008000000080800080000000800067
:1029700080008080000080808000C0C0C000000017
:10298000FF0000FF000000FFFF00FF000000FF004D
:10299000FF00FFFF0000FFFFFF000000000000003D
:1029A000000000F00F000F00F000000F00F0F00F2B
:1029B00000000000F00000F000000FF00000000038
:1029C000FF000000F00000F00000000F0000000F0A
:1029D000000000F000F0F000F00000000F000F0019
:1029E00000000000000000000000FF424DC6000093
:1029F0000000000000760000002800000010000029
:102A0000000A000000010004000000000050000067
:102A100000000000000000000000000000000000B6
:102A200000000000000000800000800000008080A6
:102A30000080000000800080008080000080808096
:102A400000C0C0C0000000FF0000FF000000FFFF4A
:102A500000FF000000FF00FF00FFFF0000FFFFFF7E
:102A60000000000000000000000000000000000066
:102A70000000000000000000000000000000000056
:102A80000000000000000000000000000000000046
:102A90000000000000000000000000000000000036
:102AA0000000000000000000000000000000000026
:102AB00000FF424D9A000000000000007600000078
:102AC00028000000040000000900000001000400CC
:102AD00000000000240000000000000000000000D2
:102AE0000000000000000000000000000000800066
:102AF00000800000008080008000000080008000D6
:102B00008080000080808000C0C0C0000000FF0006
:102B100000FF000000FFFF00FF000000FF00FF00BB
:102B2000FFFF0000FFFFFF00000000000F0000009B
:102B3000F00000000F00000000F000000F00000097
:102B4000F00000000F00000000000000FF424D9A5E
:102B500000000000000000760000002800000004D3
:102B60000000000900000001000400000000002433
:102B70000000000000000000000000000000000055
:102B80000000000000000000008000008000000045
:102B90008080008000000080008000808000008035
:102BA000808000C0C0C0000000FF0000FF000000E7
:102BB000FFFF00FF000000FF00FF00FFFF0000FF1D
:102BC000FFFF000000000000F00000000F00000008
:102BD000F000000F00000000F00000000F000000F7
:102BE000F0000000000000FF424D9A0000000000CD
:102BF000000076000000280000000400000009002A
:102C0000000001000400000000002400000000009B
:102C100000000000000000000000000000000000B4
:102C20000000000080000080000000808000800024
:102C30000000800080008080000080808000C0C094
:102C4000C0000000FF0000FF000000FFFF00FF00C9
:102C50000000FF00FF00FFFF0000FFFFFF0000007B
:102C60000000000000000000000000000000000064
:102C70000000000000000000000000000000000054
:102C80000000FF424D9A00000000000000760000A6
:102C900000280000000200000009000000010004FC
:102CA0000000000000240000000000000000000000
:102CB0000000000000000000000000000000008094
:102CC0000000800000008080008000000080008004
:102CD000008080000080808000C0C0C0000000FF35
:102CE0000000FF000000FFFF00FF000000FF00FFEA
:102CF00000FFFF0000FFFFFF000000000099000040
:102D000000BB000000AA000000FF000000FF000060
:102D100000FF000000FF00000000000000FF424D27
:102D20009A0000000000000076000000280000006B
:102D30000200000009000000010004000000000083
:102D4000240000000000000000000000000000005F
:102D50000000000000000000000080000080000073
:102D600000808000800000008000800080800000E3
:102D700080808000C0C0C0000000FF0000FF000095
:102D800000FFFF00FF000000FF00FF00FFFF00004A
:102D9000FFFFFF0000000000000000000000000036
:102DA0000000000000000000000000000000000023
:102DB0000000000000000000FF000000DC2D00000B
:102DC0000000002010000000601C0000EC2D00003E
:102DD0001000002000070000701C00000000000030
:0C2DE000000000000000000000000000E7
:040000050000026D88
:00000001FF
